{
  "contractName": "ArrayUtils",
  "abi": [
    {
      "constant": false,
      "inputs": [
        {
          "name": "self",
          "type": "address[] storage"
        },
        {
          "name": "value",
          "type": "address"
        }
      ],
      "name": "indexOf",
      "outputs": [
        {
          "name": "",
          "type": "uint256"
        }
      ],
      "payable": false,
      "stateMutability": "nonpayable",
      "type": "function"
    }
  ],
  "bytecode": "0x6060604052341561000f57600080fd5b61017e8061001e6000396000f300606060405260043610610041576000357c0100000000000000000000000000000000000000000000000000000000900463ffffffff1680634bb978bc14610046575b600080fd5b61007b600480803590602001909190803573ffffffffffffffffffffffffffffffffffffffff16906020019091905050610091565b6040518082815260200191505060405180910390f35b600080600090505b8380549050811015610127578273ffffffffffffffffffffffffffffffffffffffff1684828154811015156100ca57fe5b906000526020600020900160009054906101000a900473ffffffffffffffffffffffffffffffffffffffff1673ffffffffffffffffffffffffffffffffffffffff16141561011a5780915061014b565b8080600101915050610099565b7fffffffffffffffffffffffffffffffffffffffffffffffffffffffffffffffff91505b50929150505600a165627a7a7230582084abce795c21f2e900511f22137fdbe0aee97b4d58ea3cae9df3b0c428eae0360029",
  "source": "library ArrayUtils {\n\n  /** Finds the index of a given value in an array. */\n  function indexOf(address[] storage self, address value) returns (uint) {\n    for (uint i = 0; i < self.length; i++)\n    if (self[i] == value) return i;\n    return uint(-1);\n  }\n\n  /** Removes the given value in an array. */\n  /*function RemoveByValue(address[] values, address value) {\n    uint i = IndexOf(values, value);\n    RemoveByIndex(values, i);\n    }*/\n\n    /** Removes the value at the given index in an array. */\n    /*function RemoveByIndex(address[] values, uint i) {\n      while (i<values.length-1) {\n        values[i] = values[i+1];\n        i++;\n      }\n      values.length--;\n      }*/\n    }\n",
  "sourcePath": "/Users/arvindsubramanian/supplychain-new/contracts/protocols/Utils/ArrayUtils.sol",
  "compiler": {
    "name": "solc",
    "version": "0.4.18+commit.9cf6e910.Emscripten.clang"
  },
  "schemaVersion": "1.0.1",
  "updatedAt": "2018-02-10T13:15:11.919Z"
}