{
  "contractName": "BillOfLendingActual",
  "abi": [
    {
      "constant": true,
      "inputs": [
        {
          "name": "id",
          "type": "int256"
        }
      ],
      "name": "getBillOfLanding",
      "outputs": [
        {
          "name": "",
          "type": "string"
        },
        {
          "name": "",
          "type": "int256"
        },
        {
          "name": "",
          "type": "string"
        },
        {
          "name": "",
          "type": "string"
        },
        {
          "name": "",
          "type": "string"
        },
        {
          "name": "",
          "type": "string"
        }
      ],
      "payable": false,
      "stateMutability": "view",
      "type": "function"
    },
    {
      "constant": false,
      "inputs": [
        {
          "name": "billId",
          "type": "int256"
        }
      ],
      "name": "addBillOfLanding",
      "outputs": [],
      "payable": false,
      "stateMutability": "nonpayable",
      "type": "function"
    }
  ],
  "bytecode": "0x6060604052341561000f57600080fd5b6109238061001e6000396000f30060606040526004361061004c576000357c0100000000000000000000000000000000000000000000000000000000900463ffffffff168063381d854714610051578063bb9201d9146102a4575b600080fd5b341561005c57600080fd5b61007260048080359060200190919050506102c7565b60405180806020018781526020018060200180602001806020018060200186810386528c818151815260200191508051906020019080838360005b838110156100c85780820151818401526020810190506100ad565b50505050905090810190601f1680156100f55780820380516001836020036101000a031916815260200191505b5086810385528a818151815260200191508051906020019080838360005b8381101561012e578082015181840152602081019050610113565b50505050905090810190601f16801561015b5780820380516001836020036101000a031916815260200191505b50868103845289818151815260200191508051906020019080838360005b83811015610194578082015181840152602081019050610179565b50505050905090810190601f1680156101c15780820380516001836020036101000a031916815260200191505b50868103835288818151815260200191508051906020019080838360005b838110156101fa5780820151818401526020810190506101df565b50505050905090810190601f1680156102275780820380516001836020036101000a031916815260200191505b50868103825287818151815260200191508051906020019080838360005b83811015610260578082015181840152602081019050610245565b50505050905090810190601f16801561028d5780820380516001836020036101000a031916815260200191505b509b50505050505050505050505060405180910390f35b34156102af57600080fd5b6102c56004808035906020019091905050610691565b005b6102cf6107d5565b60006102d96107d5565b6102e16107d5565b6102e96107d5565b6102f16107d5565b600080888152602001908152602001600020600001600080898152602001908152602001600020600101546000808a81526020019081526020016000206002016000808b81526020019081526020016000206003016000808c81526020019081526020016000206004016000808d8152602001908152602001600020600501858054600181600116156101000203166002900480601f0160208091040260200160405190810160405280929190818152602001828054600181600116156101000203166002900480156104055780601f106103da57610100808354040283529160200191610405565b820191906000526020600020905b8154815290600101906020018083116103e857829003601f168201915b50505050509550838054600181600116156101000203166002900480601f0160208091040260200160405190810160405280929190818152602001828054600181600116156101000203166002900480156104a15780601f10610476576101008083540402835291602001916104a1565b820191906000526020600020905b81548152906001019060200180831161048457829003601f168201915b50505050509350828054600181600116156101000203166002900480601f01602080910402602001604051908101604052809291908181526020018280546001816001161561010002031660029004801561053d5780601f106105125761010080835404028352916020019161053d565b820191906000526020600020905b81548152906001019060200180831161052057829003601f168201915b50505050509250818054600181600116156101000203166002900480601f0160208091040260200160405190810160405280929190818152602001828054600181600116156101000203166002900480156105d95780601f106105ae576101008083540402835291602001916105d9565b820191906000526020600020905b8154815290600101906020018083116105bc57829003601f168201915b50505050509150808054600181600116156101000203166002900480601f0160208091040260200160405190810160405280929190818152602001828054600181600116156101000203166002900480156106755780601f1061064a57610100808354040283529160200191610675565b820191906000526020600020905b81548152906001019060200180831161065857829003601f168201915b5050505050905095509550955095509550955091939550919395565b6106996107e9565b6040805190810160405280600181526020017f3100000000000000000000000000000000000000000000000000000000000000815250816000018190525060018160200181815250506040805190810160405280600981526020017f636f6e7369676e65650000000000000000000000000000000000000000000000815250816040018190525080600080848152602001908152602001600020600082015181600001908051906020019061074f92919061083e565b5060208201518160010155604082015181600201908051906020019061077692919061083e565b50606082015181600301908051906020019061079392919061083e565b5060808201518160040190805190602001906107b092919061083e565b5060a08201518160050190805190602001906107cd92919061083e565b509050505050565b602060405190810160405280600081525090565b60c0604051908101604052806107fd6108be565b8152602001600081526020016108116108be565b815260200161081e6108be565b815260200161082b6108be565b81526020016108386108be565b81525090565b828054600181600116156101000203166002900490600052602060002090601f016020900481019282601f1061087f57805160ff19168380011785556108ad565b828001600101855582156108ad579182015b828111156108ac578251825591602001919060010190610891565b5b5090506108ba91906108d2565b5090565b602060405190810160405280600081525090565b6108f491905b808211156108f05760008160009055506001016108d8565b5090565b905600a165627a7a72305820bb03ee65b5d644738fc243e572af6a58c653cd99e5c45a0d391d8d2cffc7c30d0029",
  "source": "pragma solidity ^0.4.18;\nimport \"./BillOfLendingMeta.sol\";\n\ncontract BillOfLendingActual is BillOfLendingMeta{\nstruct BillOfLandingMedataData{\n string shipper;\nint256 bookingNumber;\nstring consignee;\nstring routingPreference;\nstring placeOfLanding;\nstring placeOfDelivery;\n}\nmapping(int => BillOfLandingMedataData) billLandingStore;\n  function addBillOfLanding(int billId )  {\n  BillOfLandingMedataData memory bmeta ;\n  bmeta.shipper  =\"1\";\n  bmeta.bookingNumber =1;\n  bmeta.consignee =\"consignee\";\n  billLandingStore[billId] = bmeta;\n  }\n\n  function getBillOfLanding(int id) constant returns  (string, int256,string,string,string, string){\n    return( billLandingStore[id].shipper,\n    billLandingStore[id].bookingNumber,\n    billLandingStore[id].consignee,\n    billLandingStore[id].routingPreference,\n    billLandingStore[id].placeOfLanding,\n    billLandingStore[id].placeOfDelivery);\n  }\n\n}\n",
  "sourcePath": "/Users/arvindsubramanian/supplychain-new/contracts/protocols/documents/goods/BillOfLendingActual.sol",
  "compiler": {
    "name": "solc",
    "version": "0.4.18+commit.9cf6e910.Emscripten.clang"
  },
  "schemaVersion": "1.0.1",
  "updatedAt": "2018-02-10T13:15:11.919Z"
}