{
  "contractName": "EscrowAgreement",
  "abi": [
    {
      "constant": true,
      "inputs": [],
      "name": "seller",
      "outputs": [
        {
          "name": "",
          "type": "address"
        }
      ],
      "payable": false,
      "stateMutability": "view",
      "type": "function"
    },
    {
      "constant": true,
      "inputs": [],
      "name": "buyer",
      "outputs": [
        {
          "name": "",
          "type": "address"
        }
      ],
      "payable": false,
      "stateMutability": "view",
      "type": "function"
    }
  ],
  "bytecode": "0x6060604052341561000f57600080fd5b6101738061001e6000396000f30060606040526004361061004c576000357c0100000000000000000000000000000000000000000000000000000000900463ffffffff16806308551a53146100515780637150d8ae146100a6575b600080fd5b341561005c57600080fd5b6100646100fb565b604051808273ffffffffffffffffffffffffffffffffffffffff1673ffffffffffffffffffffffffffffffffffffffff16815260200191505060405180910390f35b34156100b157600080fd5b6100b9610121565b604051808273ffffffffffffffffffffffffffffffffffffffff1673ffffffffffffffffffffffffffffffffffffffff16815260200191505060405180910390f35b600260009054906101000a900473ffffffffffffffffffffffffffffffffffffffff1681565b600160009054906101000a900473ffffffffffffffffffffffffffffffffffffffff16815600a165627a7a72305820376824d9a3e52272f7de657168e5c662f95a499485dfd00ef41141d6a910c1d90029",
  "source": "pragma solidity ^0.4.18;\n\nimport \"./Agreement.sol\";\n\n/*Extend the agreement with status of delivery */\ncontract EscrowAgreement is Agreement {\n    uint balance;\n    address public buyer;\n    address public seller;\n    address private escrow;\n    uint private start;\n    bool buyerOk;\n    bool sellerOk;\n  }\n",
  "sourcePath": "/Users/arvindsubramanian/supplychain-new/contracts/protocols/agreements/EscrowAgreement.sol",
  "compiler": {
    "name": "solc",
    "version": "0.4.18+commit.9cf6e910.Emscripten.clang"
  },
  "schemaVersion": "1.0.1",
  "updatedAt": "2018-02-10T13:15:11.919Z"
}