{
  "contractName": "InvoiceActual",
  "abi": [
    {
      "constant": false,
      "inputs": [
        {
          "name": "description",
          "type": "string"
        },
        {
          "name": "country",
          "type": "string"
        },
        {
          "name": "weight",
          "type": "int256"
        },
        {
          "name": "hsCode",
          "type": "int256"
        },
        {
          "name": "quantity",
          "type": "int256"
        },
        {
          "name": "unitPrice",
          "type": "int256"
        },
        {
          "name": "totalPrice",
          "type": "int256"
        },
        {
          "name": "ipfsHash",
          "type": "string"
        }
      ],
      "name": "generateInvoice",
      "outputs": [
        {
          "name": "",
          "type": "int256"
        }
      ],
      "payable": false,
      "stateMutability": "nonpayable",
      "type": "function"
    },
    {
      "constant": true,
      "inputs": [
        {
          "name": "invoiceId",
          "type": "int256"
        }
      ],
      "name": "lookUpInvoice",
      "outputs": [
        {
          "name": "",
          "type": "string"
        },
        {
          "name": "",
          "type": "string"
        },
        {
          "name": "",
          "type": "int256"
        },
        {
          "name": "",
          "type": "int256"
        },
        {
          "name": "",
          "type": "int256"
        },
        {
          "name": "",
          "type": "int256"
        },
        {
          "name": "",
          "type": "string"
        }
      ],
      "payable": false,
      "stateMutability": "view",
      "type": "function"
    }
  ],
  "bytecode": "0x6060604052341561000f57600080fd5b6108248061001e6000396000f30060606040526004361061004c576000357c0100000000000000000000000000000000000000000000000000000000900463ffffffff1680633cf8a7bf14610051578063513946ba14610175575b600080fd5b341561005c57600080fd5b61015f600480803590602001908201803590602001908080601f0160208091040260200160405190810160405280939291908181526020018383808284378201915050505050509190803590602001908201803590602001908080601f0160208091040260200160405190810160405280939291908181526020018383808284378201915050505050509190803590602001909190803590602001909190803590602001909190803590602001909190803590602001909190803590602001908201803590602001908080601f01602080910402602001604051908101604052809392919081815260200183838082843782019150505050505091905050610305565b6040518082815260200191505060405180910390f35b341561018057600080fd5b610196600480803590602001909190505061042a565b6040518080602001806020018881526020018781526020018681526020018581526020018060200184810384528b818151815260200191508051906020019080838360005b838110156101f65780820151818401526020810190506101db565b50505050905090810190601f1680156102235780820380516001836020036101000a031916815260200191505b5084810383528a818151815260200191508051906020019080838360005b8381101561025c578082015181840152602081019050610241565b50505050905090810190601f1680156102895780820380516001836020036101000a031916815260200191505b50848103825285818151815260200191508051906020019080838360005b838110156102c25780820151818401526020810190506102a7565b50505050905090810190601f1680156102ef5780820380516001836020036101000a031916815260200191505b509a505050505050505050505060405180910390f35b600061030f6106cc565b8981602001819052508881604001819052508781606001818152505086816080018181525050858160a0018181525050848160c0018181525050838160e001818152505082816101000181905250600c81600001818152505080600080836000015181526020019081526020016000206000820151816000015560208201518160010190805190602001906103a592919061072b565b5060408201518160020190805190602001906103c292919061072b565b50606082015181600301556080820151816004015560a0820151816005015560c0820151816006015560e0820151816007015561010082015181600801908051906020019061041292919061072b565b50905050806000015191505098975050505050505050565b6104326107ab565b61043a6107ab565b6000806000806104486107ab565b6000808981526020019081526020016000206001016000808a81526020019081526020016000206002016000808b8152602001908152602001600020600301546000808c8152602001908152602001600020600401546000808d8152602001908152602001600020600501546000808e8152602001908152602001600020600601546000808f8152602001908152602001600020600801868054600181600116156101000203166002900480601f0160208091040260200160405190810160405280929190818152602001828054600181600116156101000203166002900480156105745780601f1061054957610100808354040283529160200191610574565b820191906000526020600020905b81548152906001019060200180831161055757829003601f168201915b50505050509650858054600181600116156101000203166002900480601f0160208091040260200160405190810160405280929190818152602001828054600181600116156101000203166002900480156106105780601f106105e557610100808354040283529160200191610610565b820191906000526020600020905b8154815290600101906020018083116105f357829003601f168201915b50505050509550808054600181600116156101000203166002900480601f0160208091040260200160405190810160405280929190818152602001828054600181600116156101000203166002900480156106ac5780601f10610681576101008083540402835291602001916106ac565b820191906000526020600020905b81548152906001019060200180831161068f57829003601f168201915b505050505090509650965096509650965096509650919395979092949650565b61012060405190810160405280600081526020016106e86107bf565b81526020016106f56107bf565b815260200160008152602001600081526020016000815260200160008152602001600081526020016107256107bf565b81525090565b828054600181600116156101000203166002900490600052602060002090601f016020900481019282601f1061076c57805160ff191683800117855561079a565b8280016001018555821561079a579182015b8281111561079957825182559160200191906001019061077e565b5b5090506107a791906107d3565b5090565b602060405190810160405280600081525090565b602060405190810160405280600081525090565b6107f591905b808211156107f15760008160009055506001016107d9565b5090565b905600a165627a7a72305820838a4e92acb59dd29f9704a38727a95b9dc5003771d03a94e4f2a10e0cf274f90029",
  "source": "pragma solidity ^0.4.18;\nimport \"./InvoiceMeta.sol\";\n\n\ncontract InvoiceActual is InvoiceMeta {\n struct InvoiceMetaData {\nint id;\nstring description;\nstring countryOfOrigin;\nint weight;  // floating point\nint hsCode;\nint quantity;\nint unitPrice;\nint totalPrice;\nstring ipfsHash; // link to the scanned document stored in ipfs\n}\nmapping(int => InvoiceMetaData) invoiceStore;\n  function generateInvoice(string description, string country, int weight, int hsCode, int quantity,\n    int unitPrice, int totalPrice, string ipfsHash)  returns (int) {\n     InvoiceMetaData memory invoice;\n     invoice.description= description;\n     invoice.countryOfOrigin = country;\n     invoice.weight = weight;\n     invoice.hsCode =hsCode;\n     invoice.quantity = quantity;\n     invoice.unitPrice = unitPrice;\n     invoice.totalPrice = totalPrice;\n     invoice.ipfsHash =ipfsHash;\n     invoice.id = 12; // generate unique id here\n     invoiceStore[invoice.id]= invoice;\n     return invoice.id;\n\n    }\n\n function lookUpInvoice(int invoiceId) constant returns\n  (string, string, int,int,int,int,string) {\n      return (\n      invoiceStore[invoiceId].description,\n      invoiceStore[invoiceId].countryOfOrigin,\n      invoiceStore[invoiceId].weight,\n      invoiceStore[invoiceId].hsCode,\n       invoiceStore[invoiceId].quantity,\n       invoiceStore[invoiceId].unitPrice,\n       invoiceStore[invoiceId].ipfsHash);\n  }\n\n}\n",
  "sourcePath": "/Users/arvindsubramanian/supplychain-new/contracts/protocols/documents/goods/InvoiceActual.sol",
  "compiler": {
    "name": "solc",
    "version": "0.4.18+commit.9cf6e910.Emscripten.clang"
  },
  "schemaVersion": "1.0.1",
  "updatedAt": "2018-02-10T13:15:11.920Z"
}