{
  "contractName": "IoTMeasurementsOnChain",
  "abi": [
    {
      "constant": false,
      "inputs": [
        {
          "name": "_attributes",
          "type": "bytes32[]"
        },
        {
          "name": "_values",
          "type": "int256[]"
        },
        {
          "name": "_events",
          "type": "bytes32[]"
        },
        {
          "name": "_timestamps",
          "type": "uint256[]"
        },
        {
          "name": "_farmer_codes",
          "type": "bytes32[]"
        },
        {
          "name": "_batch_nos",
          "type": "bytes32[]"
        }
      ],
      "name": "addMeasurements",
      "outputs": [],
      "payable": false,
      "stateMutability": "nonpayable",
      "type": "function"
    },
    {
      "constant": true,
      "inputs": [
        {
          "name": "i",
          "type": "uint256"
        },
        {
          "name": "",
          "type": "uint256[]"
        }
      ],
      "name": "getMeasurementIdAndValue",
      "outputs": [
        {
          "name": "",
          "type": "bytes32"
        },
        {
          "name": "",
          "type": "int256"
        }
      ],
      "payable": false,
      "stateMutability": "view",
      "type": "function"
    },
    {
      "constant": true,
      "inputs": [
        {
          "name": "",
          "type": "bytes32[]"
        }
      ],
      "name": "getMeasurements",
      "outputs": [
        {
          "name": "",
          "type": "bytes32[]"
        },
        {
          "name": "",
          "type": "int256[]"
        },
        {
          "name": "",
          "type": "bytes32[]"
        },
        {
          "name": "",
          "type": "uint256[]"
        },
        {
          "name": "",
          "type": "bytes32[]"
        },
        {
          "name": "",
          "type": "bytes32[]"
        }
      ],
      "payable": false,
      "stateMutability": "view",
      "type": "function"
    }
  ],
  "bytecode": "0x6060604052341561000f57600080fd5b610abe8061001e6000396000f300606060405260043610610057576000357c0100000000000000000000000000000000000000000000000000000000900463ffffffff1680630b3c2fae1461005c5780636b8afeba146101f6578063b7cdc12b1461027c575b600080fd5b341561006757600080fd5b6101f46004808035906020019082018035906020019080806020026020016040519081016040528093929190818152602001838360200280828437820191505050505050919080359060200190820180359060200190808060200260200160405190810160405280939291908181526020018383602002808284378201915050505050509190803590602001908201803590602001908080602002602001604051908101604052809392919081815260200183836020028082843782019150505050505091908035906020019082018035906020019080806020026020016040519081016040528093929190818152602001838360200280828437820191505050505050919080359060200190820180359060200190808060200260200160405190810160405280939291908181526020018383602002808284378201915050505050509190803590602001908201803590602001908080602002602001604051908101604052809392919081815260200183836020028082843782019150505050505091905050610493565b005b341561020157600080fd5b610257600480803590602001909190803590602001908201803590602001908080602002602001604051908101604052809392919081815260200183836020028082843782019150505050505091905050610661565b6040518083600019166000191681526020018281526020019250505060405180910390f35b341561028757600080fd5b6102d46004808035906020019082018035906020019080806020026020016040519081016040528093929190818152602001838360200280828437820191505050505050919050506106b1565b6040518080602001806020018060200180602001806020018060200187810387528d818151815260200191508051906020019060200280838360005b8381101561032b578082015181840152602081019050610310565b5050505090500187810386528c818151815260200191508051906020019060200280838360005b8381101561036d578082015181840152602081019050610352565b5050505090500187810385528b818151815260200191508051906020019060200280838360005b838110156103af578082015181840152602081019050610394565b5050505090500187810384528a818151815260200191508051906020019060200280838360005b838110156103f15780820151818401526020810190506103d6565b50505050905001878103835289818151815260200191508051906020019060200280838360005b83811015610433578082015181840152602081019050610418565b50505050905001878103825288818151815260200191508051906020019060200280838360005b8381101561047557808201518184015260208101905061045a565b505050509050019c5050505050505050505050505060405180910390f35b6000865185511415156104a557600080fd5b855185511415156104b557600080fd5b835185511415156104c557600080fd5b825185511415156104d557600080fd5b815185511415156104e557600080fd5b600090505b8451811015610658576000805480600101828161050791906109cd565b9160005260206000209060070201600060e0604051908101604052808b8681518110151561053157fe5b906020019060200201516000191681526020018a8681518110151561055257fe5b906020019060200201518152602001898681518110151561056f57fe5b90602001906020020151600019168152602001888681518110151561059057fe5b90602001906020020151815260200142815260200187868151811015156105b357fe5b9060200190602002015160001916815260200186868151811015156105d457fe5b90602001906020020151600019168152509091909150600082015181600001906000191690556020820151816001015560408201518160020190600019169055606082015181600301556080820151816004015560a0820151816005019060001916905560c0820151816006019060001916905550505080806001019150506104ea565b50505050505050565b60008060008481548110151561067357fe5b90600052602060002090600702016000015460008581548110151561069457fe5b906000526020600020906007020160010154915091509250929050565b6106b96109ff565b6106c1610a13565b6106c96109ff565b6106d1610a27565b6106d96109ff565b6106e16109ff565b6106e96109ff565b6106f1610a13565b6106f96109ff565b610701610a27565b6107096109ff565b6107116109ff565b600080805490506040518059106107255750595b9080825280602002602001820160405250965060008054905060405180591061074b5750595b908082528060200260200182016040525095506000805490506040518059106107715750595b908082528060200260200182016040525094506000805490506040518059106107975750595b908082528060200260200182016040525093506000805490506040518059106107bd5750595b908082528060200260200182016040525092506000805490506040518059106107e35750595b90808252806020026020018201604052509150600090505b6000805490508110156109ab5760008181548110151561081757fe5b906000526020600020906007020160000154878281518110151561083757fe5b90602001906020020190600019169081600019168152505060008181548110151561085e57fe5b906000526020600020906007020160010154868281518110151561087e57fe5b906020019060200201818152505060008181548110151561089b57fe5b90600052602060002090600702016002015485828151811015156108bb57fe5b9060200190602002019060001916908160001916815250506000818154811015156108e257fe5b906000526020600020906007020160030154848281518110151561090257fe5b906020019060200201818152505060008181548110151561091f57fe5b906000526020600020906007020160050154838281518110151561093f57fe5b90602001906020020190600019169081600019168152505060008181548110151561096657fe5b906000526020600020906007020160060154828281518110151561098657fe5b90602001906020020190600019169081600019168152505080806001019150506107fb565b8686868686869c509c509c509c509c509c505050505050505091939550919395565b8154818355818115116109fa576007028160070283600052602060002091820191016109f99190610a3b565b5b505050565b602060405190810160405280600081525090565b602060405190810160405280600081525090565b602060405190810160405280600081525090565b610a8f91905b80821115610a8b5760008082016000905560018201600090556002820160009055600382016000905560048201600090556005820160009055600682016000905550600701610a41565b5090565b905600a165627a7a723058208696481f4799990481e690feb9b5f2ed5b7a911b5e5b6d6bc550d0e7f88036640029",
  "source": "pragma solidity ^0.4.18;\n\nimport \"./IotMeasurements.sol\";\ncontract IoTMeasurementsOnChain is IoTMeasurements  {\n\n      struct Measurement {\n            bytes32 attribute_id;\n            int value;\n            bytes32 event_id;\n            uint timestamp;\n            uint block_timestamp;\n            bytes32 farmer_id;\n            bytes32 batch_id;\n          }\n\n          Measurement [] measurements;\n\n          function addMeasurements(bytes32 [] _attributes, int [] _values, bytes32 [] _events, uint [] _timestamps, bytes32 [] _farmer_codes, bytes32 [] _batch_nos) {\n              require(_events.length == _attributes.length);\n              require(_events.length == _values.length);\n              require(_events.length == _timestamps.length);\n              require(_events.length == _farmer_codes.length);\n              require(_events.length == _batch_nos.length);\n              for (uint i = 0; i < _events.length; i++) {\n                  measurements.push(Measurement(_attributes[i], _values[i], _events[i], _timestamps[i], block.timestamp, _farmer_codes[i], _batch_nos[i]));\n              }\n          }\n\n          function getMeasurements(bytes32 []) constant returns (bytes32 [], int [], bytes32 [], uint [], bytes32 [], bytes32 []) {\n              bytes32 [] memory attribute_ids = new bytes32[](measurements.length);\n              int [] memory values = new int[](measurements.length);\n              bytes32 [] memory event_ids = new bytes32[](measurements.length);\n              uint [] memory timestamps = new uint[](measurements.length);\n              bytes32 [] memory farmer_ids = new bytes32[](measurements.length);\n              bytes32 [] memory batch_ids = new bytes32[](measurements.length);\n              for (uint i = 0; i < measurements.length; i++) {\n                  attribute_ids[i] = measurements[i].attribute_id;\n                  values[i] = measurements[i].value;\n                  event_ids[i] = measurements[i].event_id;\n                  timestamps[i] = measurements[i].timestamp;\n                  farmer_ids[i] = measurements[i].farmer_id;\n                  batch_ids[i] = measurements[i].batch_id;\n              }\n              return (attribute_ids, values, event_ids, timestamps, farmer_ids, batch_ids);\n          }\n\n          function getMeasurementIdAndValue(uint i, uint []) constant returns (bytes32, int) {\n                  return (measurements[i].attribute_id, measurements[i].value);\n          }\n\n\n\n}\n",
  "sourcePath": "/Users/arvindsubramanian/supplychain-new/contracts/protocols/iotmeasurements/IoTMeasurementsOnChain.sol",
  "compiler": {
    "name": "solc",
    "version": "0.4.18+commit.9cf6e910.Emscripten.clang"
  },
  "schemaVersion": "1.0.1",
  "updatedAt": "2018-02-10T13:15:11.924Z"
}