{
  "contractName": "IoTMeasurements",
  "abi": [
    {
      "constant": false,
      "inputs": [
        {
          "name": "",
          "type": "bytes32[]"
        },
        {
          "name": "",
          "type": "int256[]"
        },
        {
          "name": "",
          "type": "bytes32[]"
        },
        {
          "name": "",
          "type": "uint256[]"
        },
        {
          "name": "",
          "type": "bytes32[]"
        },
        {
          "name": "",
          "type": "bytes32[]"
        }
      ],
      "name": "addMeasurements",
      "outputs": [],
      "payable": false,
      "stateMutability": "nonpayable",
      "type": "function"
    },
    {
      "constant": true,
      "inputs": [
        {
          "name": "",
          "type": "uint256"
        },
        {
          "name": "",
          "type": "uint256[]"
        }
      ],
      "name": "getMeasurementIdAndValue",
      "outputs": [
        {
          "name": "",
          "type": "bytes32"
        },
        {
          "name": "",
          "type": "int256"
        }
      ],
      "payable": false,
      "stateMutability": "view",
      "type": "function"
    },
    {
      "constant": true,
      "inputs": [
        {
          "name": "",
          "type": "bytes32[]"
        }
      ],
      "name": "getMeasurements",
      "outputs": [
        {
          "name": "",
          "type": "bytes32[]"
        },
        {
          "name": "",
          "type": "int256[]"
        },
        {
          "name": "",
          "type": "bytes32[]"
        },
        {
          "name": "",
          "type": "uint256[]"
        },
        {
          "name": "",
          "type": "bytes32[]"
        },
        {
          "name": "",
          "type": "bytes32[]"
        }
      ],
      "payable": false,
      "stateMutability": "view",
      "type": "function"
    }
  ],
  "bytecode": "0x6060604052341561000f57600080fd5b6105468061001e6000396000f300606060405260043610610057576000357c0100000000000000000000000000000000000000000000000000000000900463ffffffff1680630b3c2fae1461005c5780636b8afeba146101f6578063b7cdc12b1461027c575b600080fd5b341561006757600080fd5b6101f46004808035906020019082018035906020019080806020026020016040519081016040528093929190818152602001838360200280828437820191505050505050919080359060200190820180359060200190808060200260200160405190810160405280939291908181526020018383602002808284378201915050505050509190803590602001908201803590602001908080602002602001604051908101604052809392919081815260200183836020028082843782019150505050505091908035906020019082018035906020019080806020026020016040519081016040528093929190818152602001838360200280828437820191505050505050919080359060200190820180359060200190808060200260200160405190810160405280939291908181526020018383602002808284378201915050505050509190803590602001908201803590602001908080602002602001604051908101604052809392919081815260200183836020028082843782019150505050505091905050610493565b005b341561020157600080fd5b61025760048080359060200190919080359060200190820180359060200190808060200260200160405190810160405280939291908181526020018383602002808284378201915050505050509190505061049b565b6040518083600019166000191681526020018281526020019250505060405180910390f35b341561028757600080fd5b6102d46004808035906020019082018035906020019080806020026020016040519081016040528093929190818152602001838360200280828437820191505050505050919050506104a5565b6040518080602001806020018060200180602001806020018060200187810387528d818151815260200191508051906020019060200280838360005b8381101561032b578082015181840152602081019050610310565b5050505090500187810386528c818151815260200191508051906020019060200280838360005b8381101561036d578082015181840152602081019050610352565b5050505090500187810385528b818151815260200191508051906020019060200280838360005b838110156103af578082015181840152602081019050610394565b5050505090500187810384528a818151815260200191508051906020019060200280838360005b838110156103f15780820151818401526020810190506103d6565b50505050905001878103835289818151815260200191508051906020019060200280838360005b83811015610433578082015181840152602081019050610418565b50505050905001878103825288818151815260200191508051906020019060200280838360005b8381101561047557808201518184015260208101905061045a565b505050509050019c5050505050505050505050505060405180910390f35b505050505050565b6000809250929050565b6104ad6104de565b6104b56104f2565b6104bd6104de565b6104c5610506565b6104cd6104de565b6104d56104de565b91939550919395565b602060405190810160405280600081525090565b602060405190810160405280600081525090565b6020604051908101604052806000815250905600a165627a7a72305820ea3b0da0c4ca03ecd07c8190a6947dba96c944df7657197396246bed477da5110029",
  "source": "pragma solidity ^0.4.18;\n\ncontract IoTMeasurements {\n\n  function getMeasurements(bytes32 []) constant returns (bytes32 [], int [], bytes32 [], uint [], bytes32 [], bytes32 []) {\n\n    }\n\n      function getMeasurementIdAndValue(uint, uint []) constant returns (bytes32, int) {\n\n      }\n\n      function addMeasurements(bytes32 [], int [], bytes32 [], uint [], bytes32 [], bytes32 []) {\n\n      }\n}\n",
  "sourcePath": "/Users/arvindsubramanian/supplychain-new/contracts/protocols/iotmeasurements/IoTMeasurements.sol",
  "compiler": {
    "name": "solc",
    "version": "0.4.18+commit.9cf6e910.Emscripten.clang"
  },
  "schemaVersion": "1.0.1",
  "updatedAt": "2018-02-10T13:31:30.699Z"
}