{
  "contractName": "ProduceInfo",
  "abi": [
    {
      "constant": true,
      "inputs": [
        {
          "name": "",
          "type": "uint256"
        }
      ],
      "name": "adopters",
      "outputs": [
        {
          "name": "",
          "type": "address"
        }
      ],
      "payable": false,
      "stateMutability": "view",
      "type": "function"
    },
    {
      "constant": false,
      "inputs": [
        {
          "name": "lot",
          "type": "uint256"
        },
        {
          "name": "quality",
          "type": "bool"
        },
        {
          "name": "price",
          "type": "uint256"
        }
      ],
      "name": "createProduce",
      "outputs": [
        {
          "name": "",
          "type": "uint256"
        }
      ],
      "payable": false,
      "stateMutability": "nonpayable",
      "type": "function"
    },
    {
      "constant": false,
      "inputs": [
        {
          "name": "lotid",
          "type": "uint256"
        },
        {
          "name": "certificate",
          "type": "address"
        }
      ],
      "name": "assignProduceCertificate",
      "outputs": [],
      "payable": false,
      "stateMutability": "nonpayable",
      "type": "function"
    },
    {
      "constant": false,
      "inputs": [
        {
          "name": "produce_id",
          "type": "uint256"
        },
        {
          "name": "orig_owner",
          "type": "address"
        },
        {
          "name": "new_owner",
          "type": "address"
        }
      ],
      "name": "changeOwnerOfLot",
      "outputs": [
        {
          "name": "",
          "type": "uint256"
        }
      ],
      "payable": false,
      "stateMutability": "nonpayable",
      "type": "function"
    },
    {
      "constant": false,
      "inputs": [
        {
          "name": "lot",
          "type": "uint256"
        },
        {
          "name": "quality",
          "type": "bool"
        },
        {
          "name": "price",
          "type": "uint256"
        }
      ],
      "name": "_createProduce",
      "outputs": [
        {
          "name": "",
          "type": "uint256"
        }
      ],
      "payable": false,
      "stateMutability": "nonpayable",
      "type": "function"
    },
    {
      "constant": true,
      "inputs": [],
      "name": "getProduce",
      "outputs": [
        {
          "components": [
            {
              "name": "produce_lot",
              "type": "uint256"
            },
            {
              "name": "produce_quality",
              "type": "bool"
            },
            {
              "name": "produce_price",
              "type": "uint256"
            },
            {
              "name": "owner_id",
              "type": "address"
            },
            {
              "name": "previous_owner_id",
              "type": "address"
            },
            {
              "name": "certificate",
              "type": "address"
            },
            {
              "name": "produce_lot_quantity",
              "type": "uint256"
            }
          ],
          "name": "",
          "type": "tuple"
        }
      ],
      "payable": false,
      "stateMutability": "view",
      "type": "function"
    }
  ],
  "bytecode": "0x6060604052341561000f57600080fd5b610b7f8061001e6000396000f300606060405260043610610078576000357c0100000000000000000000000000000000000000000000000000000000900463ffffffff16806343ae80d31461007d5780636bfb7bf1146100e05780637562ca361461012b578063def05a8a1461016d578063ef13e7e5146101e2578063f23dd7471461022d575b600080fd5b341561008857600080fd5b61009e6004808035906020019091905050610256565b604051808273ffffffffffffffffffffffffffffffffffffffff1673ffffffffffffffffffffffffffffffffffffffff16815260200191505060405180910390f35b34156100eb57600080fd5b6101156004808035906020019091908035151590602001909190803590602001909190505061028b565b6040518082815260200191505060405180910390f35b341561013657600080fd5b61016b600480803590602001909190803573ffffffffffffffffffffffffffffffffffffffff169060200190919050506102a1565b005b341561017857600080fd5b6101cc600480803590602001909190803573ffffffffffffffffffffffffffffffffffffffff1690602001909190803573ffffffffffffffffffffffffffffffffffffffff16906020019091905050610497565b6040518082815260200191505060405180910390f35b34156101ed57600080fd5b61021760048080359060200190919080351515906020019091908035906020019091905050610539565b6040518082815260200191505060405180910390f35b341561023857600080fd5b61024061086d565b6040518082815260200191505060405180910390f35b60008160108110151561026557fe5b016000915054906101000a900473ffffffffffffffffffffffffffffffffffffffff1681565b6000610298848484610539565b90509392505050565b6000601060008481526020019081526020016000209050818160050160006101000a81548173ffffffffffffffffffffffffffffffffffffffff021916908373ffffffffffffffffffffffffffffffffffffffff1602179055508060106000858152602001908152602001600020600082015481600001556001820160009054906101000a900460ff168160010160006101000a81548160ff021916908315150217905550600282015481600201556003820160009054906101000a900473ffffffffffffffffffffffffffffffffffffffff168160030160006101000a81548173ffffffffffffffffffffffffffffffffffffffff021916908373ffffffffffffffffffffffffffffffffffffffff1602179055506004820160009054906101000a900473ffffffffffffffffffffffffffffffffffffffff168160040160006101000a81548173ffffffffffffffffffffffffffffffffffffffff021916908373ffffffffffffffffffffffffffffffffffffffff1602179055506005820160009054906101000a900473ffffffffffffffffffffffffffffffffffffffff168160050160006101000a81548173ffffffffffffffffffffffffffffffffffffffff021916908373ffffffffffffffffffffffffffffffffffffffff16021790555060068201548160060155905050505050565b6000808273ffffffffffffffffffffffffffffffffffffffff168473ffffffffffffffffffffffffffffffffffffffff16141515156104d557600080fd5b601060008681526020019081526020016000209050828160030160006101000a81548173ffffffffffffffffffffffffffffffffffffffff021916908373ffffffffffffffffffffffffffffffffffffffff16021790555060019150509392505050565b60006105436109df565b6000808611151561055357600080fd5b6001151585151514151561056657600080fd5b60008411151561057557600080fd5b60e0604051908101604052808781526020018615158152602001858152602001600073ffffffffffffffffffffffffffffffffffffffff168152602001600173ffffffffffffffffffffffffffffffffffffffff168152602001600073ffffffffffffffffffffffffffffffffffffffff168152602001600a81525091506001601180548060010182816106099190610a61565b916000526020600020906007020160008590919091506000820151816000015560208201518160010160006101000a81548160ff0219169083151502179055506040820151816002015560608201518160030160006101000a81548173ffffffffffffffffffffffffffffffffffffffff021916908373ffffffffffffffffffffffffffffffffffffffff16021790555060808201518160040160006101000a81548173ffffffffffffffffffffffffffffffffffffffff021916908373ffffffffffffffffffffffffffffffffffffffff16021790555060a08201518160050160006101000a81548173ffffffffffffffffffffffffffffffffffffffff021916908373ffffffffffffffffffffffffffffffffffffffff16021790555060c08201518160060155505003905081601060008381526020019081526020016000206000820151816000015560208201518160010160006101000a81548160ff0219169083151502179055506040820151816002015560608201518160030160006101000a81548173ffffffffffffffffffffffffffffffffffffffff021916908373ffffffffffffffffffffffffffffffffffffffff16021790555060808201518160040160006101000a81548173ffffffffffffffffffffffffffffffffffffffff021916908373ffffffffffffffffffffffffffffffffffffffff16021790555060a08201518160050160006101000a81548173ffffffffffffffffffffffffffffffffffffffff021916908373ffffffffffffffffffffffffffffffffffffffff16021790555060c0820151816006015590505080925050509392505050565b6108756109df565b6011600081548110151561088557fe5b906000526020600020906007020160e06040519081016040529081600082015481526020016001820160009054906101000a900460ff16151515158152602001600282015481526020016003820160009054906101000a900473ffffffffffffffffffffffffffffffffffffffff1673ffffffffffffffffffffffffffffffffffffffff1673ffffffffffffffffffffffffffffffffffffffff1681526020016004820160009054906101000a900473ffffffffffffffffffffffffffffffffffffffff1673ffffffffffffffffffffffffffffffffffffffff1673ffffffffffffffffffffffffffffffffffffffff1681526020016005820160009054906101000a900473ffffffffffffffffffffffffffffffffffffffff1673ffffffffffffffffffffffffffffffffffffffff1673ffffffffffffffffffffffffffffffffffffffff168152602001600682015481525050905090565b60e0604051908101604052806000815260200160001515815260200160008152602001600073ffffffffffffffffffffffffffffffffffffffff168152602001600073ffffffffffffffffffffffffffffffffffffffff168152602001600073ffffffffffffffffffffffffffffffffffffffff168152602001600081525090565b815481835581811511610a8e57600702816007028360005260206000209182019101610a8d9190610a93565b5b505050565b610b5091905b80821115610b4c576000808201600090556001820160006101000a81549060ff021916905560028201600090556003820160006101000a81549073ffffffffffffffffffffffffffffffffffffffff02191690556004820160006101000a81549073ffffffffffffffffffffffffffffffffffffffff02191690556005820160006101000a81549073ffffffffffffffffffffffffffffffffffffffff0219169055600682016000905550600701610a99565b5090565b905600a165627a7a723058204dda332a864f512a89bd968b234cf5925c57e0bc4a543d1276bdf609f38387b30029",
  "source": "pragma solidity ^0.4.17;\n\ncontract TokenAddress {\n\n}\ncontract ProduceInfo {\n\n\naddress[16] public adopters;\n\n//Token public tokenAddress;  //  farmer\n\nmapping(uint256 => Produce) produceInfoMap;\n/*function createTokenAddress(Token a) {\n  tokenAddress = a;\n }*/\n\n\n  struct Produce {\n    uint256 produce_lot;\n    bool  produce_quality;\n    uint256 produce_price;\n    address owner_id;\n    address previous_owner_id;\n    address certificate;\n    uint256 produce_lot_quantity;\n    // add location and other attributes\n  }\n  Produce [] producelist;\n\n\n\n//  add single mango lot to blockhain, add filtering conditions\nfunction getProduce() public view returns(Produce){\n  return producelist[0];\n}\n\nfunction _createProduce(uint256 lot, bool quality, uint256 price ) public returns (uint256) {\n\n  require(lot > uint256(0));\n  require (quality == true );\n  require(price > 0);\nProduce memory _mango  = Produce ({\nproduce_lot: uint256(lot),\nproduce_quality:bool(quality),\nproduce_price:uint256(price),\nowner_id: 0,\ncertificate:0,\nproduce_lot_quantity:10,\nprevious_owner_id :1\n});\n\nuint256 produceId = producelist.push(_mango) - 1;\nproduceInfoMap[produceId] = _mango;  // map id to lot\nreturn produceId;\n}\n\nfunction createProduce(uint256 lot, bool quality, uint256 price ) public  returns (uint256) {\nreturn _createProduce(lot,quality,price);\n}\n\n\n\n\n// Initial state default owner is the farmer id\nfunction assignProduceCertificate(uint256 lotid, address certificate ) public  {\n var  produce = produceInfoMap[lotid];\n    produce.certificate = certificate;\n    produceInfoMap[lotid] = produce;\n}\n\nfunction changeOwnerOfLot(uint256 produce_id, address orig_owner, address new_owner) public returns (uint256) {\n\nrequire(orig_owner != new_owner);\nvar produce = produceInfoMap[produce_id];\n// change this securely add more checks\nproduce.owner_id = new_owner;\n\n// take care of ownership history ?\n\n\nreturn 1;\n}\n\n}\n",
  "sourcePath": "/Users/arvindsubramanian/supplychain-new/contracts/protocols/documents/goods/ProduceInfo.sol",
  "compiler": {
    "name": "solc",
    "version": "0.4.18+commit.9cf6e910.Emscripten.clang"
  },
  "schemaVersion": "1.0.1",
  "updatedAt": "2018-02-10T13:15:11.921Z"
}