{
  "contractName": "TransportLot",
  "abi": [
    {
      "constant": false,
      "inputs": [
        {
          "name": "lotId",
          "type": "int256"
        },
        {
          "name": "locationId",
          "type": "int256"
        },
        {
          "name": "lotStatus",
          "type": "uint256"
        },
        {
          "name": "lotRejectionReason",
          "type": "uint256"
        },
        {
          "name": "documentRejection",
          "type": "uint256"
        },
        {
          "name": "paymentsStatus",
          "type": "uint256"
        }
      ],
      "name": "addLocationTransitInfo",
      "outputs": [],
      "payable": false,
      "stateMutability": "nonpayable",
      "type": "function"
    },
    {
      "anonymous": false,
      "inputs": [
        {
          "indexed": false,
          "name": "",
          "type": "string"
        },
        {
          "indexed": false,
          "name": "len",
          "type": "uint256"
        }
      ],
      "name": "PrintArrayLength",
      "type": "event"
    }
  ],
  "bytecode": "0x6060604052341561000f57600080fd5b6104298061001e6000396000f300606060405260043610610041576000357c0100000000000000000000000000000000000000000000000000000000900463ffffffff1680639151e16a14610046575b600080fd5b341561005157600080fd5b6100946004808035906020019091908035906020019091908035906020019091908035906020019091908035906020019091908035906020019091905050610096565b005b61009e6102e9565b86816000018181525050858160200181815250508460028111156100be57fe5b816040019060028111156100ce57fe5b908160028111156100db57fe5b815250508360058111156100eb57fe5b816060019060058111156100fb57fe5b9081600581111561010857fe5b8152505082600381111561011857fe5b8160800190600381111561012857fe5b9081600381111561013557fe5b8152505081600281111561014557fe5b8160a00190600281111561015557fe5b9081600281111561016257fe5b81525050600080888152602001908152602001600020805480600101828161018a919061034c565b91600052602060002090600302016000839091909150600082015181600001556020820151816001015560408201518160020160006101000a81548160ff021916908360028111156101d857fe5b021790555060608201518160020160016101000a81548160ff0219169083600581111561020157fe5b021790555060808201518160020160026101000a81548160ff0219169083600381111561022a57fe5b021790555060a08201518160020160036101000a81548160ff0219169083600281111561025357fe5b02179055505050507f7965e210df63a6bc4b9b0c808f608bde54a7ecf9eaaa96f62bf9d4aab6aa205e600080898152602001908152602001600020805490506040518080602001838152602001828103825260068152602001807f4c656e67746800000000000000000000000000000000000000000000000000008152506020019250505060405180910390a150505050505050565b60c06040519081016040528060008152602001600081526020016000600281111561031057fe5b81526020016000600581111561032257fe5b81526020016000600381111561033457fe5b81526020016000600281111561034657fe5b81525090565b81548183558181151161037957600302816003028360005260206000209182019101610378919061037e565b5b505050565b6103fa91905b808211156103f65760008082016000905560018201600090556002820160006101000a81549060ff02191690556002820160016101000a81549060ff02191690556002820160026101000a81549060ff02191690556002820160036101000a81549060ff021916905550600301610384565b5090565b905600a165627a7a7230582052ea4126b404617f243a379064e2acdc9a8ef8dbc2e74e7091a99c8a8c516b960029",
  "source": "pragma solidity ^0.4.18;\n\nimport \"./TransportLotBase.sol\";\n\ncontract TransportLot {\n  enum LotStatus{\n    InTransit,\n    Accepted,\n    Rejected\n  }\n  enum LotStatusRejectionReason{\n    NoError,\n    GoodQualityBad,\n    StorageNotGood,\n    PesticideContentDetected,\n    PackagingBad,\n    DocumentVerificationFailed\n  }\n\n  enum DocumentFailureReason {\n    NoError,\n    DocumentA,\n    DocumentB,\n    DocumentC\n  }\n  enum PaymentStatus {\n    PaymentPending,\n    PayementPartial,\n    PaymentComplete\n  }\n\nstruct LocationDelta {\n  int lotId;\n  int locationId;\n  LotStatus lotStatus;\n  LotStatusRejectionReason lotRejectionReason;\n  DocumentFailureReason documentRejectionReason;\n  PaymentStatus payementStatus;\n}\n\n/* For LotId, store in array inputs data that are updated or changed */\nmapping (int => LocationDelta[] ) lotIdArray;\n\nevent PrintArrayLength(string ,uint len);\n\nfunction addLocationTransitInfo(int lotId, int locationId,uint lotStatus,\nuint lotRejectionReason, uint documentRejection, uint paymentsStatus){\n    LocationDelta memory ld;\n    ld.lotId = lotId;\n    ld.locationId = locationId;\n    ld.lotStatus = LotStatus(lotStatus);\n    ld.lotRejectionReason = LotStatusRejectionReason(lotRejectionReason);\n    ld.documentRejectionReason =DocumentFailureReason(documentRejection);\n    ld.payementStatus = PaymentStatus(paymentsStatus);\n    lotIdArray[lotId].push(ld);\n    PrintArrayLength(\"Length\",lotIdArray[lotId].length );\n}\n\n}\n",
  "sourcePath": "/Users/arvindsubramanian/supplychain-new/contracts/protocols/transport/TransportLot.sol",
  "compiler": {
    "name": "solc",
    "version": "0.4.18+commit.9cf6e910.Emscripten.clang"
  },
  "schemaVersion": "1.0.1",
  "updatedAt": "2018-02-10T13:15:11.925Z"
}