{
  "contractName": "UserProfile",
  "abi": [
    {
      "constant": false,
      "inputs": [
        {
          "name": "username",
          "type": "string"
        },
        {
          "name": "profileType",
          "type": "uint256"
        },
        {
          "name": "profileStatus",
          "type": "uint256"
        }
      ],
      "name": "createUser",
      "outputs": [],
      "payable": false,
      "stateMutability": "nonpayable",
      "type": "function"
    }
  ],
  "bytecode": "0x6060604052341561000f57600080fd5b6102c48061001e6000396000f300606060405260043610610041576000357c0100000000000000000000000000000000000000000000000000000000900463ffffffff16806308ea7d2114610046575b600080fd5b341561005157600080fd5b6100b3600480803590602001908201803590602001908080601f016020809104026020016040519081016040528093929190818152602001838380828437820191505050505050919080359060200190919080359060200190919050506100b5565b005b600033905083600160008373ffffffffffffffffffffffffffffffffffffffff1673ffffffffffffffffffffffffffffffffffffffff16815260200190815260200160002060000190805190602001906101109291906101f3565b5082600381111561011d57fe5b600160008373ffffffffffffffffffffffffffffffffffffffff1673ffffffffffffffffffffffffffffffffffffffff16815260200190815260200160002060020160006101000a81548160ff0219169083600381111561017a57fe5b021790555081600281111561018b57fe5b600160008373ffffffffffffffffffffffffffffffffffffffff1673ffffffffffffffffffffffffffffffffffffffff16815260200190815260200160002060020160016101000a81548160ff021916908360028111156101e857fe5b021790555050505050565b828054600181600116156101000203166002900490600052602060002090601f016020900481019282601f1061023457805160ff1916838001178555610262565b82800160010185558215610262579182015b82811115610261578251825591602001919060010190610246565b5b50905061026f9190610273565b5090565b61029591905b80821115610291576000816000905550600101610279565b5090565b905600a165627a7a72305820286de6b3791c49312a08f61b06538b48dc10eae9f0b9f2babf17e29e0e57ef0d0029",
  "source": "pragma solidity ^0.4.18;\ncontract UserProfile {\n\nenum UserProfileType{\n  Farmer,\n  ContractFarmingGroup,\n  Regulator,\n  Admin\n}\n\nenum UserProfileStatus {\n  Pending,\n  Active,\n  Inactive\n}\n\nint id;\nstruct User {\n  string userName;\n  int userId;\n  UserProfileType profileType;\n  UserProfileStatus profileStatus;\n}\nmapping (address => User) userMap;\n\nmodifier onlyBy(address _account)\n  {\n      require(msg.sender == _account);\n      // Do not forget the \"_;\"! It will\n      // be replaced by the actual function\n      // body when the modifier is used.\n      _;\n  }\n  // define functions and modifiers for different roles here\n  modifier onlyByActiveAdmin() {\n    address _account = msg.sender;\n    require(userMap[_account].profileType == UserProfileType.Admin);\n    require(userMap[_account].profileStatus == UserProfileStatus.Active);\n    _;\n  }\n\n  function createUser(string username,uint profileType, uint profileStatus){\n    address _account = msg.sender;\n    userMap[_account].userName = username;\n    userMap[_account].profileType =UserProfileType(profileType);\n    userMap[_account].profileStatus =UserProfileStatus(profileStatus);\n}\n\n/*function getUser() onlyByActiveAdmin  returns ( UserProfileType profileType, UserProfileStatus profileStatus){\n    return ( userMap[msg.sender].profileType, userMap[msg.sender].profileStatus);\n}*/\n\n}\n",
  "sourcePath": "/Users/arvindsubramanian/supplychain-new/contracts/protocols/user_profile/UserProfile.sol",
  "compiler": {
    "name": "solc",
    "version": "0.4.18+commit.9cf6e910.Emscripten.clang"
  },
  "schemaVersion": "1.0.1",
  "updatedAt": "2018-02-10T13:15:11.926Z"
}